:020000040800F2
:10000000900600204501000819180008A50C0008FA
:10001000151800089D0A0008CD28000800000000FF
:10002000000000000000000000000000891A000825
:10003000A10A000800000000BB180008B11B00085E
:100040005F0100085F0100085F0100085F01000810
:100050005F0100085F0100085F0100085F01000800
:100060005F0100085F0100085F0100085F010008F0
:100070005F0100085F0100085F0100085F010008E0
:100080005F0100085F0100085F0100085F010008D0
:100090005F0100085F0100085F010008A30A000873
:1000A0005F0100085F0100085F0100085F010008B0
:1000B000151C00085F0100085F0100085F010008CF
:1000C0005F0100085F0100085F0100085F01000890
:1000D0005F0100088D240008F92400083D25000870
:1000E0005F0100085F0100085F0100085F01000870
:1000F0005F0100085F0100085F0100085F01000860
:100100005F0100085F010008011F00085F0100088F
:100110005F0100085F0100085F0100085F0100083F
:100120005F0100085F0100085F0100085F0100082F
:10013000DFF80CD000F068FC004800473D3A0008AA
:10014000900600200648804706480047FEE7FEE785
:10015000FEE7FEE7FEE7FEE7FEE7FEE7FEE7FEE777
:10016000B51B000831010008F0B480EA0102D40F89
:100170004200B2EB410F02D20246084611464A0045
:1001800042D0C30DDDB2C1F3C752AD1A202D35DA0E
:10019000C1F3160141F4000204B15242C5F1200638
:1001A00002FA06F12A411044B3EBD05F23D0C4B168
:1001B000012DA0EBC35009DCF0BC4FF0004202EA75
:1001C000C352DBB200F5000000F0F8B9400000F1C6
:1001D000807000EBC350A0F1807040EAD1704900FC
:1001E00009E0490841EAC071A0EBC35000F50000E6
:1001F000400800EBC350F0BC00F0D7B961420122C7
:1002000002EB4101001BF6E7F0BC704781F00041B2
:10021000AAE780F00040A7E780EA010210B502F0EB
:100220000043400022D04A001FD0010E01EB1261B2
:10023000C0F35600C2F3560240F4000042F400023C
:10024000A0FB022000047F39140400D0401C50EAB7
:10025000124001D44000491EC2B20C0604EBD0107B
:10026000401C4008802A02D003E0002010BD20F08E
:100270000100002900DA0020184310BD30B480EAE4
:10028000010202F0004530F0004221F0004013D09E
:1002900090B1C30DD40DC2F31601C0F31600E41AD9
:1002A00041F4000140F400027D34914201D3641C0A
:1002B00000E04900002C02DA30BC002070474FF407
:1002C00000000023914201D3891A034340084FEAFA
:1002D0004101F7D151B1914202D14FF0004105E007
:1002E00002D24FF0010101E06FF0010103EBC450B5
:1002F000284430BC00F059B92DE9F04D81EA0304DF
:1003000004F0004B21F0004514464FF0000A23F0A2
:10031000004150EA050220D054EA01021DD0C5F385
:100320000A570246C5F31303C1F31300C1F30A567B
:1003300040F4801543F48013A7EB0608101BD64643
:1003400008F2FD3873EB050002D308F1010801E063
:1003500092185B41B8F1000F03DA00200146BDE8B6
:10036000F08D00204FF48011064684460EE0171BE6
:1003700073EB050705D3121B63EB050306434CEA39
:10038000010C49084FEA300092185B4150EA01071E
:10039000EDD152EA030012D082EA040083EA05019B
:1003A000084305D0101BAB4106D20122002306E012
:1003B00000224FF0004302E06FF0010253101AEBED
:1003C00006004CEB085110EB0A0041EB0B01BDE8B5
:1003D000F04D00F021B9C10F80EAE0700844CA076F
:1003E0009623002100F0EAB896230022114600F07F
:1003F000E5B820F00040C10DC0F3160040F4000045
:100400007F2901DA00207047962903DCC1F19601AB
:10041000C840704796398840704770B5C1F30A529A
:1004200001F000450024C1F3130140F2FF3341F411
:1004300080119A4201DA002070BD40F233439A42A3
:10044000A2F2334203DC524200F09FF800E09040F9
:100450002C43F1D0404270BD00F0004230F000402B
:100460000AD0C10D01F56071C0F3160042EA0151D6
:10047000C208400711437047002001467047000042
:1004800030B5041E71F1000404DB4FF0004440421B
:1004900064EB0101141E73F1000405DB1C464FF0F0
:1004A0000043524263EB04038B4208BF824230BDDB
:1004B00001F0004330B421F0004150EA010206D0BF
:1004C0000A0DA2F56072C1F31301002A02DC30BCF0
:1004D00000207047440F44EAC104C100E01830BC5A
:1004E00000EBC25000F061B8002801DBC0F1004011
:1004F000002901DBC1F100418142704730B50B4654
:10050000014600202022012409E021FA02F59D4243
:1005100005D303FA02F5491B04FA02F52844151E17
:10052000A2F10102F1DC30BD2DE9F05F05460020AB
:1005300092469B4688460646814640241BE0284654
:1005400041464746224600F020F853465A46C01A14
:10055000914110D311461846224600F067FA2D1A31
:1005600067EB01084F4622460120002100F05EFAA9
:1005700017EB00094E41201EA4F10104DFDC4846C0
:1005800031462A464346BDE8F09F202A04DB203A44
:1005900021FA02F00021704721FA02F3D040C2F1A3
:1005A000200291400843194670470029A8BF7047B0
:1005B000401C490008BF20F00100704710B4B0FA99
:1005C00080FC00FA0CF050EA010404BF10BC704734
:1005D00049B1CCF1200421FA04F411FA0CF118BF4E
:1005E000012121430843A3EB0C01CB1D4FEA00611D
:1005F0004FEA102042BF002010BC704700EBC350F0
:1006000010440029A4BF10BC7047401C490008BF1B
:1006100020F0010010BC704710B5141E73F10004E7
:1006200008DA401C41F1000192185B411A4301D1E4
:1006300020F0010010BD2DE9F04D92469B4611B10E
:10064000B1FA81F202E0B0FA80F22032904600F076
:10065000EDF904460F4640EA0A0041EA0B01534611
:100660005A46084313D0114653EA010019D0C8F185
:1006700040025046FFF789FF05460E465046594650
:10068000424600F0D3F9084305D0012004E020469B
:100690003946BDE8F08D0020054346EAE0762C435C
:1006A00037430A986305E40AA0EB08000022FD0A1C
:1006B00044EA47540A3002D500200146E9E7010523
:1006C00010196941DDE9084500196941BDE8F04D9F
:1006D000A2E72DE9FE4F804681EA0300C00F0C46D9
:1006E000009021F0004123F00045B8EB0200A94141
:1006F00005D24046214690461C460B46024623F052
:100700000040104347D0270DC7F30A00C3F30A5136
:100710000290401A019040286BDAC3F3130040F4B2
:10072000801B0098924620B10023D2EB030A63EBB2
:100730000B0B01985946C0F14002504600F076F983
:1007400006460D4650465946019A00F07EF910EBD8
:1007500008006141002487EA115284EAE7731A43D2
:1007600040D0009A62B3019A012A4FEA075215DC81
:10077000001B61EB02014FF0004202EA0752CDE993
:100780000042001C41F5801132462B46FFF753FF13
:1007900003B0BDE8F08F40462146F9E7001B61EB4E
:1007A0000201001C41F5801300185B412018A2F5DE
:1007B000001747EB030140EAD570B6196D4111E00F
:1007C0006D084FEA360645EAC0754FEA0752001B2E
:1007D00061EB0201001C41F5801149084FEA30002D
:1007E0000019514132462B4603B0BDE8F04FFFF7E8
:1007F00013BF0098012240000023D0EB020263EBFC
:10080000E073009821464FEAE074B8EB000061EB1A
:100810000401E9E783F000435BE781F0004158E71A
:100820002DE9FE4F81EA030404F0004421F0004169
:1008300000944FF0000B23F0004350EA01045ED017
:1008400052EA03045BD0C3F30A54C1F30A552C44A3
:10085000A4F2F3340194A0FB0254C1F3130141F458
:100860008011C3F3130343F4801301FB024400FB24
:10087000034E840A970A44EA815447EA8357A4FB4B
:10088000076802958D0A05FB07854FEA932C04FB48
:100890000C542705029D4FEA065847EA1637B5EB78
:1008A00008056EEB070C870E920E47EA811742EAA5
:1008B0008312A7FB0201B6EB0B0164EB00042B0DC6
:1008C00043EA0C335E1844EB1C50DA465146E7FB12
:1008D0000201C5F313044FEA0B3343EA14534FEA02
:1008E0000432019C43EA0603A4F10C040294009C28
:1008F000CDE900B4FFF79FFE03B0BDE8F08F002004
:100900000146F9E72DE9F04D00231A461B1A8A41EA
:1009100003DB00200146BDE8F08DC1F30A52C1F3AC
:10092000130141F480154FF0000BD10702D10018DC
:100930006D41521E0027044640F2FF11384601EB7C
:10094000620A3E468046024600204FF48011FFF7BF
:100950001CFEC2197141BB1846EB0100B4EB030C3D
:1009600075EB000C04D3E41A65EB000517460E4640
:10097000241908F101006D4180463428E3DDF9199E
:1009800046EB0600091BA84103D24FF0FF32134685
:1009900001E0002213461BEB070046EB0A51BDE8BD
:1009A000F04DFFF739BEC1F30A52C1F3130140F213
:1009B000FF3341F480119A4202DA00200146704769
:1009C00040F233439A42A2F2334202DC5242FFF732
:1009D000DCBD00F02BB8000030B5041E71F100043E
:1009E00004DB4FF00044404264EB0101141E73F13C
:1009F000000405DB1C464FF00043524263EB040346
:100A0000994208BF904230BD064C074D06E0E068B1
:100A100040F0010394E8070098471034AC42F6D345
:100A2000FFF78AFBF040000810410008202A04DB91
:100A3000203A00FA02F1002070479140C2F12003F1
:100A400020FA03F3194390407047202A06DBCB17A6
:100A5000203A41FA02F043EAE07306E041FA02F379
:100A6000D040C2F12002914008431946704770B54A
:100A700021F0004303430CD0C1F30A550024D5EB09
:100A8000040564EB0403D617AD1AB34102DB002062
:100A9000014670BD201841EB025170BD00BFFEE75A
:100AA000704710B5202000F00BF8202000F002F86D
:100AB00010BD0000014908607047000014040140A7
:100AC000014600200022074B1B6803EA0102054B88
:100AD00014331B680B4013B10AB1012000E0002061
:100AE000704700000004014008B50121402000F0DB
:100AF00005FF10208DF803004020ADF80000032012
:100B00008DF802006946054800F00AF82020ADF88B
:100B100000006946014800F003F808BD00180140D4
:100B20002DE9F04102460025002600200023002484
:100B3000002791F803C00CF00F0591F803C00CF0EA
:100B4000100CBCF1000F03D091F802C04CEA05056F
:100B500091F800C0BCF1000F31D0146800202BE0E8
:100B60004FF0010C0CFA00F3B1F800C00CEA0306D8
:100B70009E4220D183004FF00F0C0CFA03F7BC43C8
:100B800005FA03FC4CEA040491F803C0BCF1280FF9
:100B900006D14FF0010C0CFA00FCC2F814C00AE0B8
:100BA00091F803C0BCF1480F05D14FF0010C0CFACD
:100BB00000FCC2F810C0401C0828D1D31460B1F862
:100BC00000C0BCF1FF0F34DD546800202EE000F1BE
:100BD000080C4FF0010808FA0CF3B1F800C00CEA59
:100BE00003069E4221D183004FF00F0C0CFA03F74D
:100BF000BC4305FA03FC4CEA040491F803C0BCF1C1
:100C0000280F05D100F1080C08FA0CF8C2F814807E
:100C100091F803C0BCF1480F07D100F1080C4FF068
:100C2000010808FA0CF8C2F81080401C0828CED33E
:100C30005460BDE8F0810246002093680B400BB180
:100C4000012000E00020704741617047016170475A
:100C50000020064908704870887048608860C86045
:100C6000086148618861C861088470478400002079
:100C700070B5044600252146094801F0C0FD06E094
:100C8000681C85B2FF2D02DD0025002070BD4021CB
:100C9000034801F0E7FC0128F2D100BFF6E70000AD
:100CA0000048004000BFFEE708B50121102000F019
:100CB00025FE4FF4C050ADF8000010208DF8030061
:100CC00003208DF8020069460648FFF729FF4FF41C
:100CD00080510448FFF7BAFF4FF400610148FFF765
:100CE000B5FF08BD0010014070B500250A2000F0D6
:100CF0004FF80525002408E00E49085D00F048F88B
:100D000008B9002070BD601CC4B2AC42F4DB0A20FC
:100D100000F03EF80525002408E00749085D00F0D2
:100D200037F808B90020EDE7601CC4B2AC42F4DB30
:100D30000120E7E73A4000084940000870B5002567
:100D40000A2000F025F80525002408E00E49085D7A
:100D500000F01EF808B9002070BD601CC4B2AC429F
:100D6000F4DB0A2000F014F80525002408E0074908
:100D7000085D00F00DF808B90020EDE7601CC4B272
:100D8000AC42F4DB0120E7E73F400008494000089F
:100D900070B5044600252146094801F030FD06E003
:100DA000681C85B2FF2D02DD0025002070BD4021AA
:100DB000034801F057FC0128F2D100BFF6E700001C
:100DC0000044004010B54FF4A06000F05FFD2449DE
:100DD000087802F0DFFD01F0E3F84FF4E13003F0B2
:100DE00085F8FFF781FEFFF75FFF02F02BFFFFF7AB
:100DF0002FFF4FF4E13003F023F800241BE001F053
:100E00002DFBB0B1052002F0E7FD4FF4612003F0A7
:100E100017F8322002F0E0FD01F008FB052002F097
:100E2000DBFD01F0BFFA052002F0D6FD01F0D2FA99
:100E300003E0601CC4B2142CE1DB00BF4FF461205E
:100E400002F0AAFF0A2002F0C7FDFFF74DFF0520C0
:100E500002F0C2FDFFF772FF052002F0BDFD10BDDC
:100E6000140000202DE9F04F87B04048007980B190
:100E700040213F48FFF7DFFE20B940213C48FFF703
:100E8000E5FE03E040213A48FFF7DEFE0020374947
:100E900008713648C07858B102F01CFC02F014FF0B
:100EA00000F068FE08B102F0CFFD00202F49C870A5
:100EB0002E488078002847D02E49B1F90400FFF76A
:100EC0008AFA04462B49B1F90200FFF784FA054675
:100ED0002849B1F90000FFF77EFA06462649B1F924
:100EE0000400FFF778FA07462349B1F90200FFF73B
:100EF00072FA80462049B1F90000FFF76CFA81468A
:100F00001E49B1F90400FFF766FA82461B49B1F9A0
:100F10000200FFF760FA83461849B1F90000FFF7B5
:100F20005AFA069032204B4652465946CDE9008780
:100F3000CDE90265CDE90440069800F021F801F002
:100F400063FC0020094988700848407820B102F00D
:100F500081FE0020054948700448007810B1002047
:100F60000249087007B0BDE8F08F00004E00002075
:100F7000001801402E000020B4000020CC0000200A
:100F80000FB5A9B00020289027902C902E902F907C
:100F90002C98FFF761FA00221346CDE90A01FFF70A
:100FA0006FFA16D12E98FFF757FA00221346CDE9B3
:100FB0000A01FFF765FA0CD12F98FFF74DFA0022CE
:100FC0001346CDE90A01FFF75BFA02D102202DB0EA
:100FD00000BD012028903098FFF73EFA002213460A
:100FE000CDE90A01FFF74CFA13D13198FFF734FA33
:100FF00000221346CDE90A01FFF742FA09D13298DF
:10100000FFF72AFA00221346CDE90A01FFF738FA62
:101010007ED032990846FFF7FFF8069031990846CE
:10102000FFF7FAF8049030990846FFF7F5F80390B7
:101030000499FFF799F805900699FFF795F807903E
:10104000FFF70AFACDE9080102F018FECDE90A011E
:10105000FFF72EFA26904FF07E502699FFF70EF9F3
:10106000269026993098FFF7D7F830902699319836
:10107000FFF7D2F8319026993298FFF7CDF83290E9
:10108000FE4801680068FFF7C7F82590FC48016832
:10109000FA480068FFF7C0F82490FA480168F7485A
:1010A0000068FFF7B9F82390F7480168F348006833
:1010B000FFF7B2F82290F24801680068FFF7ACF839
:1010C0002190F0480168EE480068FFF7A5F82090ED
:1010D000ED480168EA480068FFF79EF81F90E9486C
:1010E00001680068FFF798F81E90E7480168E54836
:1010F0000068FFF791F81D90E34801680068FFF76A
:101100008BF81C902898002842D02F99084600E0C0
:101110004EE2FFF781F806902E990846FFF77CF81B
:1011200004902C990846FFF777F803900499FFF78D
:101130001BF805900699FFF717F80790FFF78CF951
:10114000CDE9080102F09AFDCDE90A01FFF7B0F9F7
:1011500026902698FFF780F902460B46CDE9080154
:101160000020CA49FFF7C8F8CDE90A01FFF7A0F946
:10117000269026992C98FFF74FF82C9026992E98B8
:10118000FFF74AF82E9026992F98FFF745F82F90F1
:1011900023991F98FEF7E8FF08903299FFF73CF873
:1011A0000A9022992098FFF731F806903199FFF7BD
:1011B00033F808904FF07C501E99FFF727F8059000
:1011C0001C99FFF723F806903099FFF725F8079050
:1011D0000899FEF7C9FF09900A99FEF7C5FF4FF07D
:1011E00080410B90FFF718F8199024991D98FFF78C
:1011F0000DF808903299FFF70FF80A904FF07C50E5
:101200002199FFF703F805901C99FEF7FFFF069060
:101210003199FFF701F8089022992098FEF7A4FF72
:1012200006903099FEF7F8FF07900899FEF79CFFAB
:1012300009900A99FEF798FF4FF080410B90FEF756
:10124000EBFF189018990846FEF7E6FF06901999EB
:101250000846FEF7E1FF05900699FEF785FF079027
:10126000FFF7FAF8CDE9080102F008FDCDE90A011F
:10127000FFF71EF91B904FF07C502199FEF7C6FF37
:1012800007901E99FEF7C2FF08903299FEF7C4FF3F
:101290000A9024991D98FEF767FF06903199FEF792
:1012A000BBFF089023991F98FEF7B0FF0690309976
:1012B000FEF7B2FF07900899FEF756FF09900A99CA
:1012C000FEF752FF4FF080410B90FEF7A5FF1A90FA
:1012D00023991F98FEF79AFF17901D992498FEF7FF
:1012E00043FF16904FF07C512598FEF78FFF0B902F
:1012F0001C99FEF739FF159023991F98FEF786FF7A
:1013000009901A99FEF788FF0B904FF07C501E99B8
:10131000FEF77CFF08901C99FEF778FF09901B9957
:10132000FEF77AFF0A900B99FEF71EFF14901D99A5
:101330002498FEF719FF09901A99FEF76DFF0B909C
:1013400022992098FEF762FF09901B99FEF764FF2F
:101350000A900B99FEF708FF13904FF07C502199EB
:10136000FEF754FF08901E99FEF750FF09901A9956
:10137000FEF752FF0B901F992398FEF7F5FE099098
:101380001B99FEF749FF0A900B99FEF7EDFE1290AC
:10139000289828B313993298FEF73EFF07901299C8
:1013A0003198FEF739FF06900799FEF72FFF099055
:1013B00016992F98FEF730FF079015992E98FEF793
:1013C0002BFF06900799FEF721FF08900999FEF779
:1013D000CBFE00210A90FFF787F801D0012000E042
:1013E00000200B90FEF7F7FF1190289828B3129970
:1013F0003098FEF711FF079014993298FEF70CFF12
:1014000006900799FEF702FF099015992C98FEF7B0
:1014100003FF079017992F98FEF7FEFE0690079995
:10142000FEF7F4FE08900999FEF79EFE00210A904F
:10143000FFF75AF801D0012000E000200B90FEF7E2
:10144000CAFF1090289880B314993198FEF7E4FEF3
:10145000079013993098FEF7DFFE06900799FEF784
:10146000D5FE099017992E98FEF7D6FE079016998B
:101470002C98FEF7D1FE0690079909E05400002051
:10148000580000205C000020600000200000F03FB9
:10149000FEF7BCFE08900999FEF766FE00210A904F
:1014A000FFF722F802D0012001E0FFE700200B90B7
:1014B000FEF791FF0F903398FEF796FF01460890D4
:1014C0004FF07E50FEF7DAFE0A90C8481199FEF7F9
:1014D000A3FE09900A99FEF79FFE0B90C44801688D
:1014E0000B98FEF741FEC24908603398FEF77CFF77
:1014F000014608904FF07E50FEF7C0FE0A90BB48B0
:101500001099FEF789FE09900A99FEF785FE0B9067
:10151000B84801680B98FEF727FEB6490860339873
:10152000FEF762FF014608904FF07E50FEF7A6FEE0
:101530000A90AE480F99FEF76FFE09900A99FEF7E0
:101540006BFE0B90AC4801680B98FEF70DFEAA49A4
:101550000860A74801682998FEF706FE2990A5486B
:1015600001682A98FEF700FE2A90A34801682B988C
:10157000FEF7FAFD2B90A1481199FEF74DFE0B9056
:101580002999FEF7F1FD29909C481099FEF744FE39
:101590000B902A99FEF7E8FD2A9098480F99FEF7DC
:1015A0003BFE0B902B99FEF7DFFD2B90012027903F
:1015B0003398FEF719FF014609904FF07E50FEF771
:1015C0005DFE4FF07C510A90FEF726FE0B902999A4
:1015D000FEF722FE29903398FEF706FF0146099098
:1015E0004FF07E50FEF74AFE4FF07C510A90FEF716
:1015F00013FE0B902A99FEF70FFE2A903398FEF700
:10160000F3FE014609904FF07E50FEF737FE4FF093
:101610007C510A90FEF700FE0B902B99FEF7FCFD23
:101620002B90774800680E90764800680D907648B9
:1016300000680C9075482B990068FEF7EDFD0A9044
:101640002A990C98FEF7E8FD08900D9880F000406C
:1016500006902999FEF7E0FD07900899FEF7D6FD60
:1016600009900A99FEF7D2FD0B90654801680B9826
:10167000FEF77AFD6249086064482A990068FEF71F
:10168000CBFD0A902B990C98FEF7C6FD08900E9999
:101690002998FEF7C1FD07900899FEF765FD0990AE
:1016A0000A99FEF7B3FD0B90564801680B98FEF7B8
:1016B0005BFD54490860554801682998FEF7ACFD68
:1016C0000A902B990D98FEF7A7FD08902A990E987D
:1016D000FEF7A2FD07900899FEF798FD09900A9978
:1016E000FEF742FD0B90484801680B98FEF73CFD61
:1016F000454908600C992998FEF78EFD0A902A99B1
:101700000D98FEF789FD08902B990E98FEF784FD41
:1017100007900899FEF728FD09900A99FEF776FDD3
:101720000B903A4801680B98FEF71EFD3749086098
:10173000084601680068FEF76FFD069032480168B0
:101740000068FEF769FD04902E4801680068FEF706
:1017500063FD02902A4801680068FEF75DFD019074
:101760000299FEF701FD03900499FEF7FDFC059038
:101770000699FEF7F9FC0790FEF76EFECDE9080129
:1017800002F07CFACDE90A01FEF792FE2690269837
:10179000FEF762FE02460B46CDE9080100201C4917
:1017A000FEF7AAFDCDE90A01FEF782FE2690144855
:1017B00026990068FEF730FD114908601148269906
:1017C0000068FEF729FD0F4908600F482699006858
:1017D000FEF722FD0C4908600C4826990068FEF7C8
:1017E0001BFD0A4908602798FFF7F1BB6666E63FD4
:1017F0006C0000207000002074000020CDCC4C3E16
:1018000054000020580000205C00002060000020F0
:101810000000F03F00BFFEE77047000070B50021F8
:1018200000230F22C47804B3154C246804F4E06448
:10183000C4F5E064210AC1F10403CA40447804FA03
:1018400003F184781440214309010E4C0678A15518
:10185000047804F01F050124AC4005786D11AD003B
:1018600005F1E025C5F8004109E0047804F01F0502
:101870000124AC40044D0678761145F8264070BD31
:101880000CED00E000E400E080E100E002490143EB
:10189000024A1160704700000000FA050CED00E0FC
:1018A00078B504462646002504E0684600F0CEF8E8
:1018B000681CC5B2B542F8DB78BD704729B1064A4D
:1018C000D2690243044BDA6104E0034AD2698243DD
:1018D000014BDA61704700000010024029B1064A4E
:1018E00012690243044B1A6104E0034A12698243FD
:1018F000014B1A61704700000010024029B1064AEE
:1019000092690243044B9A6104E0034A926982435C
:10191000014B9A61704700000010024029B1064A4D
:10192000D2680243044BDA6004E0034AD26882437F
:10193000014BDA60704700000010024030B5002112
:101940000022002400232D4D6D6805F00C0121B10B
:10195000042905D0082923D105E0294D056022E09E
:10196000274D05601FE0254D6D6805F47012234D6D
:101970006D6805F48034022505EB92421CB9214DB7
:10198000554305600BE01D4D6D6805F400351DB134
:101990001C4D5543056002E0194D5543056002E0BA
:1019A000174D056000BF00BF144D6D6805F0F001D4
:1019B0000909154D6B5C0568DD4045600F4D6D688C
:1019C00005F4E061090A104D6B5C4568DD408560F7
:1019D0000A4D6D6805F46051C90A0B4D6B5C456892
:1019E000DD40C560054D6D6805F44041890B074D2C
:1019F0006B5CC568B5FBF3F5056130BD00100240B6
:101A000000127A0000093D000000002010000020B4
:101A100001460D48808808B9002070470A480288AE
:101A2000801D805C087008480088401C642290FB80
:101A3000F2F302FB1300044A108010468088401E17
:101A400090800120E9E70000BE01002001460D481A
:101A5000808808B9002070470A480288801D805C91
:101A6000087008480088401CC82290FBF2F302FB73
:101A70001300044A108010468088401E9080012088
:101A8000E9E70000F0000020704710B500F002F810
:101A900010BD00000CB50020019000903348006894
:101AA00040F480303149086000BF3048006800F4DD
:101AB000003000900198401C0190009818B90198DE
:101AC000B0F5A06FF1D12948006800F4003010B1E2
:101AD0000120009001E0002000900098012843D1EF
:101AE0002348006840F0100021490860084600685B
:101AF00020F0030008600846006840F0020008601B
:101B00001A484068194948600846406848600846D5
:101B1000406840F4806048600846406820F47C10CB
:101B200048600846406840F4E8104860084600688D
:101B300040F08070086000BF0C48006800F0007042
:101B40000028F9D00948406820F0030007494860A0
:101B50000846406840F00200486000BF0348406803
:101B600000F00C000828F9D10CBD00000010024064
:101B7000002002400348007808B900207047012087
:101B8000FCE7000084000020042808D14FF0E02189
:101B9000096941F004014FF0E022116107E04FF0C4
:101BA000E021096921F004014FF0E0221161704742
:101BB0007047000010B51348006840F0010011495B
:101BC000086008464068104908400E4948600846C9
:101BD00000680E4908400B4908600846006820F478
:101BE000802008600846406820F4FE0048604FF4FA
:101BF0001F008860FFF749FF4FF00060044908604C
:101C000010BD0000001002400000FFF8FFFFF6FECC
:101C100008ED00E010B50121880700F026FB002840
:101C20007ED0AB48008800F40040E0B9A8480088A6
:101C300000F48040B8B1A6480088C0F30D0043F618
:101C4000FF7188420AD1A248008840F40040A049B0
:101C500008804FF6FF709F49088004E09C48008888
:101C6000401C9B4908809C48008800F40040E0B973
:101C70009948008800F48040B8B197480088C0F3C4
:101C80000D0043F6FF7188420AD19348008840F462
:101C90000040914908804FF6FF709049088004E0A9
:101CA0008D480088401C8C4908808D48008800F4CD
:101CB0000040E0B98A48008800F48040B8B1884804
:101CC0000088C0F30D0043F6FF7188420AD18448B2
:101CD000008840F40040824908804FF6FF70814937
:101CE000088004E07E480088401C7D4908807E48CA
:101CF000008800F4004098B97B48008800F48040D8
:101D000070B179480088C0F30D0043F6FF71884236
:101D10000CD17548008840F400407349088000E009
:101D200009E04FF6FF707149088004E06E480088B2
:101D3000401C6D4908800121880700F085F90221C7
:101D4000480700F092FA60B36148008800F48040D0
:101D500088B14FF0804000F07BFA5E4908805C4813
:101D6000008840F400405A49088000214FF080402C
:101D700000F095FA11E04FF0804000F069FA5C49FC
:101D800008800020524908800846008840F48040BE
:101D900008800221480700F082FA0221480700F07B
:101DA00053F90421080700F060FA60B34A4800883C
:101DB00000F4804088B14FF0804000F04CFA474971
:101DC00008804548008840F40040434908800021CD
:101DD0004FF0804000F06CFA11E04FF0804000F0CE
:101DE0003AFA4449088000203B49088008460088A8
:101DF00040F4804008800221480700F059FA04218D
:101E0000080700F021F90821C80600F02EFA60B397
:101E10003348008800F4804088B14FF0804000F0E3
:101E20001DFA304908802E48008840F400402C49B3
:101E3000088000214FF0804000F047FA11E04FF099
:101E4000804000F00BFA2C490880002024490880CB
:101E50000846008840F4804008800221480700F0CE
:101E600034FA0821C80600F0EFF81021880600F0C7
:101E7000FCF960B31C48008800F4804088B14FF042
:101E8000804000F0EEF9194908801748008840F4B6
:101E900000401549088000214FF0804000F022FAF0
:101EA00011E04FF0804000F0DCF914490880002078
:101EB0000D4908800846008840F4804008800221CF
:101EC000480700F00FFA1021880600F0BDF810BD99
:101ED0003400002042000020360000203E00002098
:101EE00038000020460000203A0000204A00002070
:101EF000400000203C00002044000020480000205A
:101F000010B50121234800F0B0F9002840D0224844
:101F10000088401C20490880084600880988481C21
:101F200000EBD0714910A0EB410151BB1A4909885F
:101F3000481CC11700EB91718910A0EB8101E9B930
:101F400015480088401C142190FBF1F201FB12009F
:101F500088B911480088401CC82190FBF1F201FBB0
:101F6000120028B901200D49087100200A49088093
:101F700001200A49C87001200849887001200749DA
:101F800048700120054908700121024800F05CF802
:101F900010BD0000000C00404C0000204E0000204E
:101FA0001FB501210820FFF789FC1E4800F05CF8EE
:101FB0000020ADF80600ADF80A006420ADF8080076
:101FC00040F60F60ADF8040001A9164800F098F93A
:101FD00001221146134800F059F932208DF8000013
:101FE00000208DF801008DF8020001208DF803001B
:101FF0006846FFF713FC01210A4800F028F8012188
:10200000084800F015F80121064800F020F80120EA
:1020100005490880002005490871C870887048701B
:1020200008701FBD000C00404C0000204E00002036
:1020300021B1028842F08002028004E002884FF65B
:102040007F731A4002807047CA430282704721B1F1
:10205000028842F00102028004E002884FF6FE731B
:102060001A4002807047000010B504466848844258
:1020700008D10121C014FFF751FC0021E014FFF743
:102080004DFCC4E0B4F1804F08D101210846FFF7B0
:1020900025FC00210120FFF721FCB8E05D488442C7
:1020A00008D101210220FFF719FC00210220FFF7CF
:1020B00015FCACE05848844208D101210420FFF708
:1020C0000DFC00210420FFF709FCA0E053488442E6
:1020D00008D101210820FFF701FC00210820FFF7AB
:1020E000FDFB94E04E48844208D101211020FFF707
:1020F000F5FB00211020FFF7F1FB88E049488442FE
:1021000008D101212020FFF7E9FB00212020FFF763
:10211000E5FB7CE04448844208D101214014FFF7EC
:10212000FDFB00216014FFF7F9FB70E03F4884429B
:1021300009D10121C804FFF7F1FB00214FF4002071
:10214000FFF7ECFB63E03A48844209D1012108051E
:10215000FFF7E4FB00214FF48010FFF7DFFB56E0B0
:102160003448844209D101214805FFF7D7FB0021FB
:102170004FF40010FFF7D2FB49E02F48844208D10A
:1021800001214020FFF7AAFB00214020FFF7A6FB1A
:102190003DE02A48844208D101218020FFF79EFBC0
:1021A00000218020FFF79AFB31E02548844208D1C6
:1021B00001218015FFF792FB0021A015FFF78EFB90
:1021C00025E02048844209D101210804FFF7A6FB3D
:1021D00000214FF48030FFF7A1FB18E01A48844239
:1021E00009D101214804FFF799FB00214FF4003089
:1021F000FFF794FB0BE01548844208D101218804C5
:10220000FFF78CFB00214FF48020FFF787FB10BD08
:10221000002C01400004004000080040000C004079
:10222000001000400014004000340140004C014008
:10223000005001400054014000180040001C0040C4
:10224000002000400040014000440140004801409F
:102250000146888E70470146088F70470146888F77
:1022600070470146B1F84000704730B50246002083
:1022700000230024158A05EA0103958905EA010473
:1022800013B10CB1012000E0002030BD1AB18389E8
:102290000B43838102E083898B43838170470A4625
:1022A0000021018C4FF6FD731940114301847047E2
:1022B0000A460021018C4FF6DF7319404FF6FF7379
:1022C00003EA02131943018470470A460021018C76
:1022D0004FF6FF5319404FF6FF7303EA02231943E9
:1022E000018470470A460021018C4DF6FF731940A6
:1022F0004FF6FF7303EA023319430184704700006D
:10230000002202881D4B98420ED01D4B98420BD0E4
:10231000B0F1804F08D01B4B984205D01A4B984221
:1023200002D01A4B984204D14FF68F731A404B8853
:102330001A43174B984207D0164B984204D04FF6D9
:10234000FF431A40CB881A4302808B8883850B8811
:1023500003850A4B98420BD0094B984208D00E4B8C
:10236000984205D00D4B984202D00D4B984201D1B6
:102370000B7A03860123838270470000002C014002
:10238000003401400004004000080040000C004000
:102390000010004000140040004001400044014093
:1023A0000048014070B500250A20FEF761FC1025A9
:1023B000002408E00649085DFEF75AFC08B9002031
:1023C00070BD601CC4B2AC42F4DB0120F8E7000031
:1023D0000A40000870B500250A20FEF749FC0020DD
:1023E00070B92C25002408E00E49085DFEF740FC7A
:1023F00008B9002070BD601CC4B2AC42F4DB0EE032
:102400002C25002408E00849085DFEF731FC08B9D6
:102410000020EFE7601CC4B2AC42F4DB00BF00BF99
:102420000120E7E7DE3F0008B23F000870B5002555
:102430000A20FEF71DFC0E25002408E00649085D71
:10244000FEF716FC08B9002070BD601CC4B2AC4297
:10245000F4DB0120F8E70000A43F000870B5002578
:102460000A20FEF705FC1C25002408E00649085D4B
:10247000FEF7FEFB08B9002070BD601CC4B2AC4280
:10248000F4DB0120F8E70000883F000810B540F2B7
:1024900025510B4800F0F3F820B140F225510848CF
:1024A00000F077F80821064800F0DCF830B1044865
:1024B00000F0A0F90821024800F062F810BD000009
:1024C0000038014070B5044600252146094800F057
:1024D00096F906E0681C85B2FF2D02DD002500207C
:1024E00070BD4021034800F0BDF80128F2D100BFC3
:1024F000F6E700000038014010B540F225510E48C3
:1025000000F0BDF858B10C4800F074F9C4B2204690
:1025100000F0FCF940F22551074800F03AF8082194
:10252000054800F09FF830B1034800F063F9082136
:10253000014800F025F810BD0044004010B540F2FD
:1025400025510E4800F09BF858B10C4800F052F9A4
:10255000C4B2204600F0BCF940F22551074800F013
:1025600018F80821054800F07DF830B1034800F064
:1025700041F90821014800F003F810BD004800406F
:1025800001F40072B2F5007F00D100BFCA4302809F
:10259000704710B50022002340F66A14A14200D112
:1025A00000BF0A1201249440A3B2DC43048010BD92
:1025B00021B1828942F40052828104E082894DF681
:1025C000FF731A408281704710B504462048844248
:1025D00009D101218803FFF7A1F900214FF48040C0
:1025E000FFF79CF932E01B48844209D101214804DD
:1025F000FFF774F900214FF40030FFF76FF925E081
:102600001548844209D101218804FFF767F90021A8
:102610004FF48020FFF762F918E01048844209D196
:102620000121C804FFF75AF900214FF40020FFF7F9
:1026300055F90BE00A48844208D101210805FFF74B
:102640004DF900214FF48010FFF748F910BD00004C
:10265000003801400044004000480040004C004069
:102660000050004002460020B1F5007F00D100BFBD
:1026700013880B400BB1012000E00020704770B5BB
:102680000246002400230025002040F66A16B142CD
:1026900000D100BFC1F3421501F01F03012606FA65
:1026A00003F3012D02D19689334006E0022D02D1B9
:1026B000168A334001E0968A33400C12012606FA4E
:1026C00004F41688344013B10CB1012000E000205E
:1026D00070BDF0B50346002400260025002040F61A
:1026E0006A17B94200D100BF1846C1F3421401F085
:1026F0001F06012707FA06F5012C01D10C3004E072
:10270000022C01D1103000E014301AB107682F43B9
:10271000076002E00768AF430760F0BD2DE9F047AE
:1027200086B005460E460024A24600BFA1460027FB
:10273000B08900B100BF2F462C8A4CF6FF700440D0
:10274000F08804432C82AC894EF6F3100440B08824
:1027500031890843718908430443AC81AC8A4FF640
:10276000FF400440B0890443AC8201A8FFF7E6F8BB
:102770001F48874202D1DDF810A001E0DDF80CA06F
:10278000A88900F4004040B10AEBCA0000EB0A102F
:1027900031684900B0FBF1F807E00AEBCA0000EB32
:1027A0000A1031688900B0FBF1F86420B8FBF0F042
:1027B00004012009642101FB1089A88900F400406C
:1027C00040B1322000EBC900B0FBF1F000F007008F
:1027D000044308E0322000EB09106421B0FBF1F063
:1027E00000F00F0004432C8106B0BDE8F087000024
:1027F0000038014001468888C0F308007047C1F3E3
:1028000008028280704700002DE9FF5F2A480168B6
:102810004FF08040FDF700FD0190274801680198C6
:10282000FDF7FAFC8246254801684FF08040FDF72D
:10283000F3FC0190214801680198FDF7EDFC834607
:102840005146FDF791FC81464FF07E51FDF7DEFCCD
:102850000446FDF701FE07468846184801684FF018
:102860008040FDF7D9FC8346154801685846FDF7BE
:10287000D3FC8146104801684FF08040FDF7CCFC46
:102880008346104801685846FDF7C6FC8246494613
:10289000FDF7BCFC0446FDF7DFFD3A464346CDE9B3
:1028A000020100F057FE0546FDF7B7FD00B20649EC
:1028B0000880BDE8FF9F0000580000205400002061
:1028C000600000205C0000206400002000BFFEE7E4
:1028D00001460D488088C82801DB002070470A485F
:1028E0004288801D8154801F4088401CC82290FB74
:1028F000F2F302FB1300044A508010468088401C0B
:1029000090800120EAE70000F000002001460D4819
:102910008088642801DB002070470A484288801DB7
:102920008154801F4088401C642290FBF2F302FB1C
:102930001300044A508010468088401C908001207B
:10294000EAE70000BE0100200FB4054B10B503A953
:10295000044A029800F056F910BC5DF814FB000020
:10296000153A00087C000020490050EAC12018BF39
:1029700004204A0D18BF40F0010040F2FF72B2EB94
:10298000515F08BF40F00200012808BF05207047D2
:102990002DE9F0414F1E00EBC7010446D1E90001CB
:1029A00015461E4637F006020DD02A463346FDF77F
:1029B00037FF7F1E04EBC703D3E90023FDF789FE31
:1029C00037F00602F1D1022F25D0042F13D0062FA5
:1029D00018BFBDE8F0812A463346FDF721FFD4E950
:1029E0000A23FDF776FE2A463346FDF719FFD4E9A0
:1029F0000823FDF76EFE2A463346FDF711FFD4E9A2
:102A00000623FDF766FE2A463346FDF709FFD4E9A3
:102A10000423FDF75EFE2A463346FDF701FFD4E9A5
:102A20000223FDF756FE2A463346FDF7F9FED4E9A8
:102A30000023BDE8F041FDF74CBE0122FEF717B8B8
:102A4000FDF747BE024A00201107FEF710B800004C
:102A500001FDFFFF02E008C8121F08C1002AFAD1D9
:102A600070477047002001E001C1121F002AFBD10E
:102A70007047000001490860704700008000002096
:102A80002DE9FF5F82B00021DDE90430020DDDF8A1
:102A900040B0034318D044F61050A2F2FF32424334
:102AA0001514119801281FD0A5EB0B00401C5FEAFC
:102AB000000A4FF000064E4FDFF83891B0465046FE
:102AC00015D5CAF1000413E0119801244AA3012886
:102AD00001D16FEA0B010298119AC0E90031C0E9F7
:102AE000024206B0BDE8F09FCBF10000DFE70446EC
:102AF0000021404A491842EB0450CDE9001012E091
:102B0000E00707D032463B4640464946FDF788FE7F
:102B10008046894632463B4610461946FDF780FE00
:102B200006460F466410002CEAD1DDE90401DDE918
:102B30000023BAF1000F06DAFDF772FE42464B465B
:102B4000FDF76EFE05E0FDF7D7FB42464B46FDF76D
:102B5000D3FB04460E460022284BFDF73DFF03D869
:102B60004FF0FF30014607E00022254B204631465A
:102B7000FDF7AFFDFDF717FF102409E0002C0ADB7D
:102B80000A220023FDF7D0FC039B30321A55641E45
:102B900050EA0102F2D1641C039AC4F111031444F7
:102BA000119A012A03D0012208430DD10AE00843FB
:102BB00004D000204FF0110B119072E7A3EB0B052E
:102BC0006D1E0DE05B4504DD4FF0000205F10105CF
:102BD00004E003DA4FF00002A5F10105002AECD071
:102BE00002981199C0E90231C0E9004579E7000077
:102BF000000014400000F03F300000000000F043EF
:102C00000000E03F2DE9FF4F95B09B468946064600
:102C100000250FE2252877D100242746F84A012114
:102C2000059400E0044316F8013F203B01FA03F04D
:102C30001042F7D130782A2811D06FF02F03307866
:102C4000A0F13002092A16D8059A44F0020402EBDA
:102C5000820203EB42021044761C0590EFE759F81C
:102C6000042B0592002A03DA504244F400540590E4
:102C700044F00204761C30782E2816D116F8010F85
:102C800044F004042A280DD06FF02F023078A0F110
:102C90003003092B09D807EB870302EB4303C7185E
:102CA000761CF3E759F8047B761C30786C280FD03B
:102CB00006DC4C2817D068280DD06A2814D104E00F
:102CC000742810D07A280FD10DE044F400140AE0E3
:102CD00044F4801401E044F440147278824202D13A
:102CE00004F58014761C761C307866280BD013DC33
:102CF000582877D009DC002875D04528F6D046281A
:102D0000F4D047281AD19DE118E0632835D0642813
:102D100079D0652812D195E1702873D008DC672836
:102D2000F1D069286FD06E280DD06F2806D1B5E09C
:102D300073282CD0752875D0782874D05A461799E6
:102D400090476D1C75E1C4F30250022809D0032896
:102D50000DD0D9F8001004280DD00D6009F1040938
:102D600067E1D9F80010EA17C1E90052F6E7D9F88F
:102D700000100D80F2E70D70F0E719F8041B8DF8D4
:102D8000001000208DF80100EA46012003E059F808
:102D900004AB4FF0FF3061074FF0000102D40DE0AB
:102DA00008F101018846B9420FDA8045F8DB1AF8CC
:102DB00008100029F4D108E008F101018846814299
:102DC000FADB1AF808100029F6D105985B46A0EB4B
:102DD000080721463846179A00F094FA284400EB79
:102DE000080507E04DE029E10DE01AF8010B5A460D
:102DF00017999047B8F10108F7D25B46214638464B
:102E0000179A13E142E00A220092C4F302524FF0F3
:102E1000000A022A08D059F804CB032A4FEAEC71C1
:102E20000AD00DE029E02AE009F1070121F00702AC
:102E3000F2E802C1914609E00FFA8CFC4FEAEC710E
:102E4000042A03D14FFA8CFC4FEAEC71002907DA0F
:102E50000A460021DCF1000C61EB02012D2202E0A8
:102E6000220504D52B228DF80420012203E0E2077D
:102E700001D02022F7E7904659E00A2102E0102213
:102E80000DE010214FF0000A00910BE010224FF0EE
:102E9000000A44F004040827009203E008224FF0DF
:102EA000000A0092C4F30252022A05D059F804CB5A
:102EB0000021032A08D009E009F1070121F00702E7
:102EC000F2E802C1914605E01FFA8CFC042A01D108
:102ED0000CF0FF0C4FF00008220728D5702806D010
:102EE000009B83F0100353EA0A0305D00EE0402252
:102EF0008DF80420012208E05CEA010206D03022AD
:102F00008DF804208DF8050002229046009B83F086
:102F1000080353EA0A030AD15CEA010201D16207FD
:102F200005D530228DF804204FF001087F1E582867
:102F300004D034A003900EA802900DE036A0F9E76B
:102F400053466046009AFDF7EFFA84460398825C88
:102F50000298401E029002705CEA0100F0D10298D3
:102F600006A9081A00F1200A600702D524F480346B
:102F700000E00127574502DDA7EB0A0000E0002032
:102F800000EB0A01009005984144401A0590E003C7
:102F900006D45B462146179A059800F0B3F905441C
:102FA000002706E001A85A46C05D179990476D1C9E
:102FB0007F1C4745F6DBE0030CD55B462146179A9C
:102FC000059800F09FF9054404E030205A4617990F
:102FD00090476D1C0099481E00900029F5DC08E020
:102FE000029802995A460078491C02911799904715
:102FF0006D1CBAF10001AAF1010AF1DC65E10000E3
:1030000009280100303132333435363738396162BE
:103010006364656600000000303132333435363782
:1030200038394142434445460000000000F058F959
:103030000544761C307800287FF4ECAD19B02846A2
:10304000BDE8F08F620700D4062709F1070222F0DD
:10305000070CFCE80223E14603F000485FEA080C95
:1030600002D00FF2702C0DE05FEA045C02D50FF283
:10307000682C07E05FEAC47C02D00FF2602C01E00C
:10308000AFF2700C4FF0FF3823F00043CDF850C082
:1030900065280CD006DC452809D046281DD04728D5
:1030A0003DD13DE0662818D067287ED138E0002168
:1030B000112F01DB112000E0781CCDE9000106A9E9
:1030C0000EA8FFF7DDFCDDE90F010E9A0391002148
:1030D000009207F1010A04914DE04FF00040009783
:1030E000CDE9011006A90EA8FFF7CAFCDDE90F0221
:1030F00003920E9B11990022DDF80CA0009304921C
:1031000011B9791C00EB010AB7EB0A0004D4C0F135
:10311000FF3007F1010A0490AAEB0700019044E098
:10312000012F00DA01270021112F01DD112000E01D
:103130003846CDE9000106A90EA8FFF7A1FCDDE99C
:103140000F010E9A0391002104910092BA462107C3
:103150000CD40399514500DA8A46BAF1010F05DD16
:10316000009AAAF10101515C302908D0B84202DA74
:1031700010F1040F06DA0121CDE9011015E0AAF1E2
:103180000101E9E7002805DC049901440491AAEB58
:10319000000102E0411C514500DD8A460499401AB5
:1031A000401C01904FF000400290200704D4019889
:1031B000504501DBCDF8048000208DF84F000298C7
:1031C0000DF14F07B0F1004F25D02B200E90029843
:1031D0004FF0020800280CDA404202902D200E9099
:1031E00007E00A210298FDF789F93031029007F8CB
:1031F000011DB8F10001A8F10108F2DC02980028D5
:10320000EFD1791E0E980870307800F0200040F061
:10321000450007F8020D12A8C01B00F1070814981A
:10322000007800B1012000EB0A01019801EBE07188
:1032300005984144401A401E0590E00306D45B46C1
:103240002146179A059800F05DF805441498007817
:1032500018B15A46179990476D1CE00324D55B4678
:103260002146179A059800F04DF805441CE0049893
:10327000002807DBDDE90301884203DD0098405C9C
:10328000179901E0179930205A469047049805F1A4
:103290000105401C04900198401E019004D12E208D
:1032A0005A46179990476D1CBAF10001AAF1010A1C
:1032B000DDDC05E017F8010B5A46179990476D1CA5
:1032C000B8F10001A8F10108F4DC5B462146179A29
:1032D0000598ABE62D0000002B0000002000000048
:1032E0002DE9F041044600251E461746880404D403
:1032F00005E039462020B0476D1C641EF9D52846EC
:10330000BDE8F0812DE9F041044600251E469046B7
:10331000C80301D5302700E02027880404D505E044
:1033200041463846B0476D1C641EF9D52846BDE8B5
:10333000F08100002DE9F84F04460D4621F00040D1
:1033400000917349814211DC7249884201DC06D147
:103350002CB120462946BDE8F84FFFF76EBB6E48FA
:10336000002DCCBF6D496E49BDE8F88F6D49814293
:1033700011DD6D498142D8BF4FF0FF366DDD20462B
:103380002946FFF7F1FA042808BFFFF75BFB204648
:103390002946BDE8F88F6549654F25F00045814213
:1033A00033DD6449814219DD002632464FF0804307
:1033B00020462946FDF78DF980468A46012220469F
:1033C0002946FDF754FB00223B46FDF723FA42460F
:1033D0005346FCF791FF04460D463EE001260022CD
:1033E000BA463B4620462946FDF773F980460F460C
:1033F0000022534620462946FDF70CFA42463B463A
:10340000FCF77AFF04460D4627E04B4981421BDD5D
:10341000DFF828A102260022534620462946FDF760
:10342000FFF900223B46FDF754F980460F46002283
:10343000534620462946FDF7EDF942463B46FCF748
:103440005BFF04460D4608E0032622462B4600207B
:103450003B49FCF751FF04460D4622462B461046D9
:103460001946FDF7DDF98B46824602460B46FDF70D
:10347000D7F907460246334888460B46062178446A
:10348000FFF786FA52465B46FDF7CAF982462E4898
:103490008B463A46434605217844FFF779FA3A4687
:1034A0004346FDF7BDF902460B46002E50465946ED
:1034B0000CDAFDF70EF922462B46FDF7B1F901B003
:1034C00022462B46BDE8F04FFDF7A7B9FDF701F9FD
:1034D00022462B46FDF7A4F91C4A7A4402EBC603A8
:1034E000D3E90023FDF796F922462B46FDF792F922
:1034F000174A7A4402EBC603D3E90023FDF78DF99E
:10350000009A002AB8BF81F00041BDE8F88F0000A2
:10351000000010440000F07F182D4454FB21F93FB7
:10352000FB21F9BF0000DC3F0000203E0000F33F1C
:103530000000F03F0000E63F008003400000F83F3D
:103540000000F0BF360C0000F40B0000920B0000EE
:103550005A0B00002DE9F04D9446CCF1000423F005
:1035600000464CEA0404524F46EAD4749A46884610
:1035700021F00042BC4206D8454240EA050442EA36
:10358000D474BC4204D9BDE8F04D6246FFF758BA86
:10359000AAF14055A5F17F6555EA0C040BD0022431
:1035A00004EAAA74434DDFF810E144EAD87452EA01
:1035B000000B04D00CE0BDE8F04DFFF7BBBE002CC3
:1035C00014BF012CBDE8F08D022C30D0032C32D07A
:1035D00056EA0C0B0AD0BE4220D1BA4209D126F0DD
:1035E000804622F080423346114617E000291ADB5C
:1035F00025E0DFF8C8B0FB44002C04BFDBE9000184
:10360000BDE8F08D012C02BFDBE9000181F0004133
:10361000BDE8F08D022C0AD0032C0CD0BA4212D196
:10362000B8F1000F0BDA23482549BDE8F08D284694
:103630002449BDE8F08D28467146BDE8F08D1D484F
:103640002149BDE8F08D921B12153C2AC4BF1948D0
:103650001D490EDCBAF1000FBEBF12F13C0F002075
:10366000014606DB6246FCF747FE21F00041FFF70A
:1036700061FE002C08BFBDE8F08D012C04BF81F075
:103680000041BDE8F08D114A114B022C07D0FDF727
:10369000C1F82A46BDE8F04D0A4BFDF7BBB8FDF76F
:1036A000B9F82A46BDE8F04D064BFDF7B6B8000064
:1036B0000000F07F182D4454FB2109C0EE0A0000E1
:1036C000FB21F9BFFB210940FB21F93F075C1433C3
:1036D00026A6A13C2DE9FF5F0026B046B146B246C2
:1036E000B346002240F22551A248FEF7F2FF002720
:1036F00034E101A98819FEF78BF900286FD09DF8F5
:10370000040055286CD1701C86B20B2E69D100269E
:10371000B8F1000F00D10FE0B9F1000F00D10BE0BC
:10372000BAF1000F00D100BFBBF1000F00D103E0E0
:10373000012004B0BDE8F09F9DF80500512806D097
:10374000522846D053287CD054287BD1CBE0B8F106
:10375000000F3CD10025002405E001A8005D2844AD
:10376000C5B2601C84B20B2CF7DB9DF80E00A8429A
:103770002CD19DF806109DF8072041EA0220FCF7A5
:103780002AFE7D490090FCF779FD7C4908609DF890
:1037900008109DF8092041EA0220FCF71CFE76493A
:1037A0000090FCF76BFD754948609DF80A109DF884
:1037B0000B2041EA0220FCF70EFE6F490090FCF757
:1037C0005DFD6E4908604FF0010801E0C4E0C3E010
:1037D00000BFB9F1000F42D10025002408E0B9E094
:1037E000B7E0B5E001A8005D2844C5B2601C84B212
:1037F0000B2CF7DB9DF80E00A8422FD19DF8061088
:103800009DF8072041EA0220FCF7E5FD5C490090A5
:10381000FCF734FD5B4908609DF808109DF809200D
:1038200041EA0220FCF7D7FD55490090FCF726FD40
:10383000544948609DF80A109DF80B2041EA022087
:1038400001E00EE082E0FCF7C6FD4D490090FCF778
:1038500015FD4C4908604FF0010901E07CE07BE078
:1038600000BFBAF1000F3CD10025002405E001A8FB
:10387000005D2844C5B2601C84B20B2CF7DB9DF8B8
:103880000E00A8422CD19DF806109DF8072041EAB1
:103890000220FCF7A0FD3C490090FCF7EFFC3B49FF
:1038A00008609DF808109DF8092041EA0220FCF705
:1038B00092FD35490090FCF7E1FC344948609DF8E1
:1038C0000A109DF80B2041EA0220FCF784FD2E49E6
:1038D0000090FCF7D3FC2D4988604FF0010A01E00D
:1038E0003AE039E000BFBBF1000F2DD100250024E4
:1038F00005E001A8005D2844C5B2601C84B20B2C11
:10390000F7DB9DF80E00A8421DD19DF806009DF83A
:10391000071040EA012000B21D4908809DF8080008
:103920009DF8091040EA012000B2194948809DF82D
:103930000A009DF80B1040EA012000B2144988806B
:103940004FF0010B01E007E006E000BF002603E0B6
:1039500002E001E00020ECE6781C87B2642FFFF65D
:10396000C8AE012240F225510248FEF7B2FEFF2008
:10397000DFE6000000440040CDCC9C4AA8000020B7
:1039800000007A4CC00000200000B44AD80000209B
:103990002800002010B504466FF00400FEF7F4F88C
:1039A000094800680949B0FBF1F009490870084668
:1039B000007800EB4001C1EBC0104FF6FF7101EA47
:1039C000C0000449088010BD1400002000127A00D5
:1039D000780000207A00002001460D4A12884A43F0
:1039E0004FF0E0235A6100229A6101221A6100BF60
:1039F0004FF0E022106900F001021AB100F48032A9
:103A0000002AF5D000224FF0E0231A619A61704736
:103A10007A00002070B504460D4607480088E1B2E0
:103A20000548FEF7ECFE00BF40210348FEF71AFEF2
:103A30000128F9D1204670BD00380140FDF7C2F9D8
:103A400001E0FDF70FFAFCE77FB500250026002016
:103A5000029079A103C9CDE90001002414E003A874
:103A6000FDF7F4FF60B11DF805009DF80C108842C9
:103A700005D1681CC5B2062D03D3012606E001E07E
:103A800004E000BF601C84B2C82CE8DB00BF002E3D
:103A90006FD01420FDF704FF6948FDF7D7FF684891
:103AA000401CFDF7D3FF0120FDF7FAFE6448801C9F
:103AB000FDF7CCFF00206249486000240DE002A819
:103AC000FDF7C4FF5E48E20041689DF808009040A1
:103AD00008445B494860601C84B2042CEFDB002082
:103AE0005749886000240DE002A8FDF7AFFF544855
:103AF000E20081689DF808009040084450498860C1
:103B0000601C84B2042CEFDB0820FDF7C9FE002006
:103B10004B49C86100240DE002A8FDF797FF484813
:103B2000E200C1699DF80800904008444449C8611A
:103B3000601C84B2042CEFDB0420FDF7B1FE0020F2
:103B40003F49086100240DE002A8FDF77FFF3C48D3
:103B5000E20001699DF80800904008443849086176
:103B6000601C84B2042CEFDB00203549C8600024BF
:103B70000EE05EE002A8FDF769FF3148E200C1688F
:103B80009DF80800904008442D49C860601C84B22C
:103B9000042CEFDB00202A49486100240DE002A834
:103BA000FDF754FF2648E20041699DF80800904067
:103BB000084423494861601C84B2042CEFDB0820D0
:103BC000FDF76EFE00201E49886100240DE002A86A
:103BD000FDF73CFF1A48E20081699DF8080090401B
:103BE000084417498861601C84B2042CEFDB042070
:103BF000FDF756FE002012490884002414E002A8B4
:103C0000FDF724FF0E48018CE2009DF8080090406B
:103C100008440B4908840846008C642190FBF1F0AD
:103C200007490884601C84B2022CE8DB012004B040
:103C300070BD0020FBE70000B56201075C000000DA
:103C40008400002000200249088048808880704756
:103C5000F000002038B500240AE06846FDF7D8FEE1
:103C600020B19DF8001004A0FEF76EFE601CC4B2E7
:103C70000B2CF2DB38BD0000256300002DE9F0417C
:103C800006460F46FCF73EFE041E0D4618BF0120F7
:103C9000284320F00040C0F17F6000F1E040C00FF9
:103CA0000ED0301C18BF0120384320F00040C0F176
:103CB0007F6000F1E040C00F04BF0120FEF7DAFE94
:103CC00020462946BDE8F0812DE9F047002530481F
:103CD0004768D0F808802F480068FCF78AFB1FFA75
:103CE00080F97320FEF7EEFB6320FEF7EBFB002468
:103CF0000DE007F07F40C4F10301C900C840C6B21F
:103D0000A819C5B23046FEF7DDFB601CC4B2042C16
:103D1000EFDB00240DE008F07F40C4F10301C9008F
:103D2000C840C6B2A819C5B23046FEF7CBFB601C2E
:103D3000C4B2042CEFDB00240DE009F47F40C4F191
:103D40000101C9000841C6B2A819C5B23046FEF744
:103D5000B9FB601CC4B2022CEFDB002406E0681E35
:103D6000C5B2FF20FEF7AEFB601CC4B2022CF6DB2E
:103D7000002405E0EDB20020FEF7A4FB601CC4B2F5
:103D8000052CF7DB2846FEF79DFBBDE8F087000019
:103D9000840000206400002010B586B00446012194
:103DA0000520FDF7ABFD01214804FDF787FD224802
:103DB000FEF70AFC0420ADF8140018208DF8170057
:103DC00003208DF8160005A91C48FCF7A9FE082061
:103DD000ADF8140004208DF8170005A91748FCF76A
:103DE0009FFE26208DF8000003208DF801008DF83D
:103DF000020001208DF803006846FDF70FFD0194D5
:103E00000020ADF80800ADF80A00ADF80C00ADF8E0
:103E100010000C20ADF80E0001A90748FEF77EFC4B
:103E2000012240F225510448FEF753FC01210248CB
:103E3000FEF7BEFB06B010BD004400400008014084
:103E400010B586B0044601210920FDF757FD012178
:103E50008804FDF733FD2348FEF7B6FB4FF480607E
:103E6000ADF8140018208DF8170003208DF8160007
:103E700005A91D48FCF754FE4FF40060ADF814008E
:103E800004208DF8170005A91748FCF749FE2720E4
:103E90008DF8000003208DF801008DF8020001204C
:103EA0008DF803006846FDF7B9FC01940020ADF8D9
:103EB0000800ADF80A00ADF80C00ADF810000C20B9
:103EC000ADF80E0001A90748FEF728FC012240F2D8
:103ED00025510448FEF7FDFB01210248FEF768FB6F
:103EE00006B010BD00480040000C014010B586B07F
:103EF0000446012144F20500FDF700FD2048FEF7CD
:103F000063FB4FF40070ADF8140018208DF8170013
:103F100003208DF8160005A91A48FCF701FE4FF49E
:103F20008060ADF8140004208DF8170005A915482D
:103F3000FCF7F6FD25208DF8000003208DF8010028
:103F40008DF8020001208DF803006846FDF766FC3D
:103F500001940020ADF80800ADF80A00ADF80C009F
:103F6000ADF810000C20ADF80E0001A90448FEF7D2
:103F7000D5FB01210248FEF71BFB06B010BD000077
:103F80000038014000080140B5620600140001003D
:103F90000000D008000000100E0001000100000029
:103FA0000000131EB5620608060064000100000050
:103FB0007910B56206242400FFFF0503000000000D
:103FC000102700000500FA00FA0064002C01000030
:103FD0000000102700000300000000004FCBB56276
:103FE00006242400FFFF0403000000001027000047
:103FF0000500FA00FA0064002C0100000000102700
:1040000000000300000000004EA9B5620601080090
:10401000010700010000000018E1B5620601080078
:10402000010400010000000015CCB5620601080083
:1040300001300001000000004100FFAA021600FF4D
:10404000AA030600FFAA040900FFAA00000000005E
:104050004FBB610567ACDD3F182D4454FB21E93FA0
:104060009BF681D20B73EF3F182D4454FB21F93F8F
:10407000E2652F227F2B7A3C075C143326A6813C15
:10408000BDCBF07A8807703C075C143326A6913CC0
:10409000C4EB98999999C9BF711623FEC671BCBF2C
:1040A0006D9A74AFF2B0B3BF9AFDDE522DDEADBF94
:1040B0002F6C6A2C44B4A2BF0D5555555555D53FAC
:1040C000FF8300922449C23F6E204CC5CD45B73FC7
:1040D000513DD0A0660DB13FEB0D76244B7BA93F3F
:1040E00011DA22E33AAD903F00000000000000002A
:1040F000104100080000002084000000542A00083D
:1041000094410008840000200C060000642A000886
:10411000000000000102030401020304060708096D
:104120000204060800A24A0400000000000000008B
:104130000102030406070809000000000000000057
:10414000000000000000000000000000000000006F
:10415000000000000000000000000000000000005F
:10416000000000000000803F000000000000000090
:10417000000000000000000000000000000000003F
:10418000000000000000000000000000000000002F
:04419000000000002B
:0400000508000131BD
:00000001FF
